S01500004B65797061644465636F6465722E73726563FB
S113000011C018C017C016C015C014C013C012C048
S113001011C010C00FC00EC00DC00CC00BC00AC070
S113002009C008C011271FBFCFE3D1E0DEBFCDBF99
S113003002D024C0E5CF44E24ABD5FEF5DBD5FE17D
S113004051B95FE055B94CBB81E090E060E070E0ED
S1130050E2B1482F592F062F02C0440F551F0A95AD
S1130060E2F75E2F542B52B952B14095452342B961
S11300706F5F7F4F6530710759F7E8CFF894FFCF72
S9030000FC
