S01500004B65797061644465636F6465722E73726563FB
S113000012C019C018C017C016C015C014C013C040
S113001012C011C010C00FC00EC00DC00CC00BC068
S11300200AC009C008C011241FBECFE5D4E0DEBF5A
S1130030CDBF02D047C0E4CFCF93DF93CDB7DEB7B7
S113004029970FB6F894DEBF0FBECDBF84E282B904
S11300508FE087BB11BA14BA91E0A1E0B0E09E0131
S1130060265F3F4F99839A839B831C829D839E8343
S11300709F839887998760E070E088B3AD01062E6E
S113008002C0440F551F0A94E2F7842B88BBFE017B
S113009031968191811109C00FEF11EE84E0015076
S11300A010408040E1F700C00000E217F30789F731
S11300B088B34095482348BB6F5F7F4F6530710517
S10B00C0E1F6D0CFF894FFCF64
S9030000FC
